:020000040800F2
:100000000000052091680008E5670008E767000820
:10001000E9670008EB670008ED67000800000000D2
:10002000000000000000000000000000814E0008F9
:10003000EF67000800000000B14E0008154F0008EF
:10004000E1680008E1680008E1680008E16800086C
:10005000E1680008E1680008E1680008E16800085C
:10006000E1680008E1680008E1680008E16800084C
:10007000E1680008E1680008E1680008E16800083C
:10008000E1680008E1680008F1670008E16800081D
:10009000E1680008E1680008E1680008E16800081C
:1000A000E1680008E1680008E168000801680008EC
:1000B000E1680008E1680008E1680008E1680008FC
:1000C000E1680008E1680008E1680008E1680008EC
:1000D000E1680008E1680008E1680008E1680008DC
:1000E000E1680008E1680008E1680008E1680008CC
:1000F000E1680008E1680008E1680008E1680008BC
:10010000E1680008E1680008E1680008E1680008AB
:10011000E1680008E168000811680008E16800086B
:10012000E1680008E1680008E1680008E16800088B
:10013000E1680008E1680008E1680008E16800087B
:10014000E1680008E1680008E1680008E16800086B
:10015000E1680008E1680008E1680008E16800085B
:10016000E1680008E1680008E1680008E16800084B
:10017000E1680008E1680008E1680008000000008C
:10018000E1680008E1680008E1680008E16800082B
:10019000E1680008E1680008E1680008E16800081B
:1001A00021680008E168000831680008E16800087B
:1001B000E1680008E1680008E1680008E1680008FB
:0801C000E1680008E168000895
:1001D00010B5054C237833B9044B13B10448AFF381
:1001E00000800123237010BD0C00002000000000DF
:1001F0003C69000808B5034B1BB103490348AFF342
:10020000008008BD00000000100000203C690008CC
:1002100053B94AB9002908BF00281CBF4FF0FF316D
:100220004FF0FF3000F072B9ADF1080C6DE904CE6B
:1002300000F006F8DDF804E0DDE9022304B07047C1
:100240002DE9F047089E04468846002B4BD18A4290
:10025000154667D9B2FA82F24AB1C2F1200701FA13
:1002600002F320FA07F7954047EA030894404FEA63
:10027000154E230CB8FBFEF71FFA85FC0EFB178802
:1002800043EA084307FB0CF1994209D9EB1807F13F
:10029000FF3080F01B81994240F21881023F2B44CD
:1002A0005B1AA4B2B3FBFEF00EFB103344EA034426
:1002B00000FB0CFCA44509D92C1900F1FF3380F098
:1002C0000781A44540F2048102382C4440EA0740EB
:1002D000A4EB0C0400271EB1D4400023C6E9004360
:1002E0003946BDE8F0878B4209D9002E00F0EB803B
:1002F0000027C6E9000138463946BDE8F087B3FA61
:1003000083F7002F47D18B4202D3824200F2FA805A
:10031000841A61EB030301209846002EE0D0C6E961
:100320000048DDE702B9FFDEB2FA82F2002A40F0AF
:100330008F80491B4FEA154E1FFA85F80127B1FB44
:10034000FEFC230C0EFB1C1143EA014308FB0CF1DD
:10035000994207D9EB180CF1FF3002D2994200F212
:10036000CD808446591AA3B2B1FBFEF00EFB1014E7
:1003700043EA044408FB00F8A04507D92C1900F112
:10038000FF3302D2A04500F2B6801846A4EB080461
:1003900040EA0C409FE7C7F1200CBB4022FA0CFE5C
:1003A0004EEA030E01FA07F420FA0CF521FA0CF3D9
:1003B0004FEA1E482543B3FBF8F92C0C08FB193310
:1003C0001FFA8EFA44EA034309FB0AF49C4202FA3C
:1003D00007F200FA07F10BD91EEB030309F1FF3016
:1003E00080F087809C4240F28480A9F10209734426
:1003F0001B1BADB2B3FBF8F008FB103345EA034416
:1004000000FB0AFAA24508D91EEB040400F1FF33F1
:100410006BD2A24569D90238744440EA0940A0FB76
:100420000289A4EB0A044C45C2464B4654D351D032
:10043000002E69D0B1EB0A0564EB030404FA0CFC4E
:10044000FD40FC404CEA0505C6E90054002747E79B
:10045000C2F1200320FA03F7954001FA02F021FAD5
:1004600003F34FEA154E3843010CB3FBFEF71FFAB6
:1004700085F80EFB173341EA034107FB08F38B4273
:1004800004FA02F407D9691807F1FF3C2FD28B4216
:100490002DD9023F2944CB1A81B2B3FBFEF00EFBEB
:1004A000103341EA034100FB08F38B4207D9691876
:1004B00000F1FF3C17D28B4215D902382944C91AE2
:1004C00040EA07473BE73746304609E70746E7E695
:1004D0001846FBE64145ABD2B8EB020A69EB0E02C7
:1004E00001381346A4E76046E9E7184695E76746F2
:1004F000D1E781467CE702382C4447E7ACF1020C97
:100500002B442FE7384608E73746E9E6704700BF37
:1005100008B5032000F010FB002006F025F905F0D7
:10052000E5FB002008BD0000034A1168034B1B785F
:100530000B441360704700BF6001002000000020E2
:10054000014B1868704700BF6001002038B50446B1
:10055000FFF7F6FF0546B4F1FF3F02D0044B1B78CE
:100560001C44FFF7EDFF401BA042FAD338BD00BF8B
:10057000000000204A4B5A6822F440325A605A6800
:1005800041680A435A600268536823F480735360D9
:1005900002685368016943EA0123536002685368A3
:1005A00023F0407353600268536881680B435360C3
:1005B0000268936823F40063936002689368C168DB
:1005C0000B439360826A374B9A424BD00268936820
:1005D00023F07063936002689368816A0B439360B1
:1005E0000268936823F04053936002689368C16A7D
:1005F0000B4393600268936823F0020393600268E0
:100600009368816943EA4103936090F82030002B9E
:1006100033D10268536823F4006353600268D36ADD
:1006200023F47003D3620168CB6AC269013A43EADA
:100630000253CB620268936823F4007393600268EC
:10064000936890F8301043EA4123936002689368FE
:1006500023F48063936002689368416943EA8123CD
:10066000936070470268936823F070639360026838
:10067000936823F040539360BCE70268536843F4E7
:10068000006353600268536823F460435360016859
:100690004B68426A013A43EA42334B60BEE700BF0F
:1006A000002301400100000F28B310B50446036C7D
:1006B00043B1236C13F0100F0BD00120002384F8FA
:1006C0003C3010BD05F032FB0023636484F83C30FD
:1006D000EFE7226C094B134043F0020323642046EA
:1006E000FFF748FF00206064236C23F0030343F00E
:1006F00001032364E2E70120704700BFFDEEFFFF26
:1007000082B00023019390F83C30012B78D0012374
:1007100080F83C3003689A6812F0010F13D19A6890
:1007200042F001029A603C4B1B683C4AA2FB032347
:100730009B0C03EB4303019302E0019B013B0193FC
:10074000019B002BF9D10268936813F0010F59D077
:10075000016C334B0B4043F480730364536813F410
:10076000806F05D0036C23F4405343F4805303643B
:10077000036C13F4805F1ED0436C23F006034364C4
:10078000002380F83C306FF0220313600268516848
:10079000244B0B435360244B5B6813F01F0F0DD1A8
:1007A00003689A6812F0405F2FD19A6842F0804245
:1007B0009A60002027E000234364E1E703681B4AB6
:1007C00093420AD0184B5B6813F0100F1FD10368D7
:1007D000174A93420AD0002015E09A6812F0405F51
:1007E000F0D19A6842F080429A60EBE79A6812F082
:1007F000405F0ED19A6842F080429A60002002E089
:10080000022000E0002002B070470020FBE700203B
:10081000F9E70020F7E700BF0800002083DE1B4354
:10082000FEF8FFFF200000040023014000200140EB
:10083000002201400368D86C70477047704738B594
:10084000044601680A68C2F340024B68C3F34013D0
:100850001A422CD0036C13F0100F03D1036C43F435
:10086000007303648B6813F0405F19D1A369BBB9AF
:10087000CB6A13F4700F03D08B6813F4806F0FD121
:100880004B6823F020034B60236C23F480732364B4
:10089000236C13F4805F03D1236C43F001032364C2
:1008A000204604F050FB23686FF012021A602368A0
:1008B0001968C1F380015A68C2F3C012114234D0E2
:1008C000226C12F0100F03D1226C42F40052226409
:1008D0009A6812F4401F21D19A6B12F4401F03D082
:1008E0009A6812F4806F19D15A6812F4806F15D18A
:1008F0009A6812F0405F11D1A2697AB95A6822F061
:1009000080025A60236C23F480532364236C13F415
:10091000807F03D1236C43F001032364204600F061
:1009200009F923686FF00C021A6022681168536895
:10093000C3F38013194203D0136813F0010F09D1D8
:1009400021680A68C2F340124B68C3F380631A42FD
:100950000CD138BD236C43F4803323642046FFF769
:100960006CFF23686FF001021A60E9E7636C43F0E3
:10097000020363646FF020050D602046FFF75EFF01
:1009800023681D60E5E7000030B482B000230193C6
:1009900090F83C30012B00F0C080012380F83C30FF
:1009A0000B68092B22D90568EA689BB203EB430365
:1009B0001E3B072404FA03F322EA0303EB600B68EF
:1009C000574A93420BD00568EA688C689BB203EBE8
:1009D00043031E3B04FA03F31343EB601BE002687E
:1009E000D3688C6843EA0463D36014E005682A691D
:1009F0009BB203EB4303072404FA03F322EA030345
:100A00002B6105682A698C680B8803EB430304FAA1
:100A100003F313432B614B68062B24D805686A6BDC
:100A200003EB8303053B1F2404FA03F322EA0303C9
:100A30006B6305686A6B4B6803EB8303053B0C88AB
:100A400004FA03F313436B630268364B9A423AD0BD
:100A50000268344B9A423FD0002380F83C3018465D
:100A600002B030BC70470C2B16D805682A6B03EB1C
:100A70008303233B1F2404FA03F322EA03032B63BB
:100A800005682A6B4B6803EB8303233B0C8804FA4D
:100A900003F313432B63D7E70568EA6A03EB830389
:100AA000413B1F2404FA03F322EA0303EB620568C7
:100AB000EA6A4B6803EB8303413B0C8804FA03F3B7
:100AC0001343EB62C0E70B68122BC1D1164A53687F
:100AD00043F480035360BBE70B68114A112B18BF26
:100AE0009342B9D1104A536843F4000353600A6833
:100AF0000B4B9A42B0D10D4B1B680D4AA2FB03234E
:100B00009B0C03EB83035A00019202E0019B013B23
:100B10000193019B002BF9D19EE70220A0E700BFC3
:100B200012000010002001400023014008000020B6
:100B300083DE1B43704700000649CB6823F4E06363
:100B40001B041B0C000200F4E0600343024A1A433A
:100B5000CA60704700ED00E00000FA0530B4154BA4
:100B6000DB68C3F30223C3F10704042C28BF042469
:100B70001D1D062D14D9033B4FF0FF3505FA04F473
:100B800021EA0401994005FA03F322EA0303194319
:100B9000002807DB0901C9B2074B195430BC704764
:100BA0000023E9E700F00F000901C9B2034B195413
:100BB000F4E700BF00ED00E000E400E014ED00E029
:100BC000002807DB00F01F02400901239340024A7E
:100BD00042F82030704700BF00E100E0002838D024
:100BE00010B50446437F1BB30223637723791BBBF5
:100BF0002368194A5A612268936823F018039360A6
:100C0000637913BB23684FF0FF321A61226893683F
:100C100023F0600361690B4393602268936823F0BB
:100C20008003A1690B43936001236377002010BD0B
:100C3000037705F0C7F8D7E7E268A168204600F01F
:100C40000DF80028DCD00120F1E7236822691A6141
:100C5000DCE70120704700BFB71DC10430B41F247A
:100C6000651E3CB105F01F0321FA03F32C4613F077
:100C7000010FF5D0182A23D8DFE802F00F22222234
:100C8000222222221E222222222222221A22222250
:100C9000222222220D00062D14D803685961016812
:100CA0008B6823F018031A438A60002030BC704719
:100CB000072DF2D90120F9E70F2DEED90120F5E734
:100CC0000120F3E70120F1E7002844D010B50446E5
:100CD00090F83530002B2ED0022384F8353022686E
:100CE00011681E4B0B4013602268116863686069CD
:100CF0000343E068034320690343A0680343A069FA
:100D00000343206A0343606A0343A06A0343E06A23
:100D10000343206B03430B4313606368102B0DD018
:100D20002268D36843F01E03D3600020E0640123EF
:100D300084F8353010BD05F05BF8CDE7237F627F86
:100D400043EA0223A27F43EA0243E17F226843EAA7
:100D500001639361E4E70120704700BF07F0E0FF03
:100D600038B310B5044690F83930EBB1022384F85B
:100D700039302268136823F4403361680B431360F1
:100D80002268536B23F00703A1680B435363226867
:100D9000116C094B0B40E1680B4313640020E063C6
:100DA000012384F8393010BD80F8383005F0AAF8F6
:100DB000DCE70120704700BF00C0FFFF70477047AD
:100DC00070B5044603685D681E6815F0010F16D003
:100DD00016F4807F13D01A6822F480721A60C36BF5
:100DE00043F00103C363036801229A60042380F87F
:100DF0003930002380F83830436903B1984715F043
:100E0000200F18D016F4005F15D02268136823F461
:100E100000531360236820229A60E36B43F00203BF
:100E2000E363042384F83930002384F8383063699D
:100E30000BB12046984715F0080F18D016F4006F34
:100E400015D02268136823F4006313602368082216
:100E50009A60E36B43F00403E363042384F83930BE
:100E6000002384F8383063690BB12046984715F0A9
:100E7000040F02D016F4806F20D115F0020F16D0A7
:100E800016F4007F13D02268136823F400731360F4
:100E9000236802229A60E36BE363012384F839300C
:100EA000002384F8383023690BB12046984715F0A9
:100EB000100F02D016F4805F0CD170BD2268136849
:100EC00023F480631360236804229A602046FFF7AE
:100ED00075FFD2E72268136823F4805313602368F8
:100EE00010229A60E36BE363012384F83930002316
:100EF00084F838302046FFF762FFDEE790F838309C
:100F0000012B59D030B4012380F83830022380F807
:100F1000393000EB0113DA698B1C1B01C35842EA1C
:100F20000343093A012A1ED98A1C00EB02125268B7
:100F300043EA026341BB0468656A204A2A401343BE
:100F40006362026800EB01139C699461DB69093BF1
:100F5000012B10D9012380F83930002380F8383074
:100F6000184630BC70478A1C00EB0212526802F02F
:100F70007F421343DEE7023100EB01114B68026848
:100F800023F07F439362E5E70468E5690B4A2A4052
:100F90001343E361026800EB01139C691461DB6990
:100FA000093B012BD6D8023100EB01114B680268D6
:100FB00023F07F431362CDE702207047F0FFFC006F
:100FC00000230F2B00F2E280F0B482B039E0092256
:100FD00000E00022B2403A4302346D4E46F824202D
:100FE0006C4A1468EA4302EA04064F6817F4803F2B
:100FF00001D045EA0406674C2660646802EA0406EC
:101000004F6817F4003F01D045EA0406614C666062
:10101000A46802EA04064F6817F4801F01D045EA6D
:1010200004065C4CA660E46822404E6816F4001F7B
:1010300001D045EA0402574CE26001330F2B00F265
:10104000A28001229A400C6804EA0205AA42F4D167
:101050004C68122C18BF022C10D1DE08083650F84C
:1010600026C003F00704A7000F24BC402CEA040CA0
:101070000C69BC4044EA0C0440F8264004685F0058
:101080000326BE40F64306EA040C4C6804F0030451
:10109000BC4044EA0C0404604C6804F1FF3C112C91
:1010A00018BFBCF1010F01D9122C11D1846806EAD6
:1010B000040CCC68BC4044EA0C048460446824EA14
:1010C000020C4C68C4F300129A4042EA0C024260DF
:1010D000C26816408A68BA403243C2604A6812F059
:1010E000805FAAD02C4A546C44F480445464526CFF
:1010F00002F480420192019A9C08A61C244A52F8EC
:10110000267003F0030296000F22B24027EA02077E
:10111000224A90423FF45DAF02F58062904222D0B5
:1011200002F58062904220D002F5806290421ED08B
:1011300002F5806290421CD002F5806290421AD083
:1011400002F58062904218D002F58062904216D07B
:1011500002F58062904214D002F5806290423FF422
:1011600036AF0A2236E7012234E7022232E70322B1
:1011700030E704222EE705222CE706222AE7072281
:1011800028E7082226E702B0F0BC7047704700BF8E
:1011900000380140003C014000380240000002409D
:1011A00012B909048161704781617047002857D0E6
:1011B00010B5044690F84130002B41D0242384F828
:1011C00041302268136823F00103136063682268CA
:1011D00023F0706313612268936823F400439360E3
:1011E000E368012B31D0A368226843F40443936081
:1011F000E368022B2FD0226851681A4B0B435360CF
:101200002268D36823F40043D360236962691343DF
:10121000A169226843EA0123D360E369216A226855
:101220000B4313602268136843F00103136000202E
:101230006064202384F84130206384F8420010BDAC
:1012400080F8403004F07EFEB8E7A368226843F4DB
:1012500000439360CCE723684FF400625A60CAE70A
:10126000012070470080000290F84130DBB2202B53
:1012700024D190F84030012B22D0012380F8403057
:10128000242380F841300268136823F001031360BF
:101290000268136823F480531360026813681943CB
:1012A00011600268136843F001031360202380F883
:1012B0004130002380F840301846704702207047C4
:1012C0000220704790F84130DBB2202B22D190F8F9
:1012D0004030012B20D0012380F84030242380F8B7
:1012E00041300268136823F0010313600268136839
:1012F00023F4706343EA012111600268136843F02C
:1013000001031360202380F84130002380F840302F
:10131000184670470220704702207047F0B44D68AD
:101320000468E368C3F30B431D44D2011444D4F8AA
:10133000883003F47043C4F888300B680468E668AA
:10134000C6F30B4633440133144443EA0543C4F85F
:101350008830CD680468E368C3F30A031D4414446D
:10136000D4F88C3003F47043C4F88C308B68046874
:10137000E668C6F30A0633440133144443EA0543DE
:10138000C4F88C3003681344D3F8944024F0070465
:10139000C3F89440036813440C69C3F8944091F86F
:1013A00031C091F832708E6905681544D5F89C30CB
:1013B0000024C5F89C4091F8303043EA0C2343EAFE
:1013C00007430568154443EA0663C5F89C30036883
:1013D0001344D3F8985025F0FF05C3F898500368DC
:1013E00013444D69C3F8985003681344D3F8A060C0
:1013F0002D4D3540C3F8A050CD690E6A03681344E3
:101400003543C3F8A05003681344D3F8AC50C3F875
:10141000AC40036813444C6AC3F8AC400B696BB131
:10142000012B3AD0022B18BF042B38D0032B38D015
:10143000072B01D0012302E0022300E0042304680B
:101440001444D4F8B05005F0E025C4F8B0508C6ACC
:1014500003FB04F54C680E68A41B03FB04F3033381
:101460000468144443EA0543C4F8B03003681344E5
:10147000D3F8B4500D4C2C40C3F8B4400368134467
:10148000C96AC3F8B41003681A44D2F8843043F030
:101490000103C2F88430F0BC70470323CFE7022376
:1014A000CDE70223CBE700BFF8F8FFFF00F8FFFF0E
:1014B000002872D038B5044690F8A130002B67D0D0
:1014C000022384F8A1302268936923F0704393616A
:1014D00021688A696368A0680343E0680343206960
:1014E000034313438B6121688A682D4B1A408A603D
:1014F000656920688268A16941EA05410A43826002
:101500002168CA681A40CA60E5692068C268216A11
:1015100041EA05410A43C26021680A691A400A612A
:10152000656A20680269A16A41EA05410A430261CD
:1015300021684A6913404B61E06A21684B69226B5C
:1015400042EA004213434B6194F8350094F8363078
:101550001B042168CA6A02F07F42CA622168CA6A13
:1015600043EA002394F8340003431343CB62226818
:10157000536B43F0060353632268936943F00103FE
:1015800093610020C4F8A400012384F8A13038BD81
:1015900080F8A03004F00EFD92E70120704700BFF4
:1015A00000F800F070477047704770B50446036854
:1015B0009D6B5E6B15F0040F02D016F0040F12D174
:1015C00015F0020F02D016F0020F21D115F0010F15
:1015D00002D016F0010F32D115F0080F02D016F02C
:1015E000080F3DD170BD5A6B22F004025A630368A4
:1015F0000422DA63D0F8A43043F00103C0F8A43029
:1016000080F8A120002380F8A030FFF7CBFFD7E7B8
:101610002268536B23F00203536323680222DA63C8
:10162000D4F8A4301343C4F8A430042384F8A130C0
:10163000002384F8A0302046FFF7B4FFC6E72268F5
:10164000536B23F00103536322680123D36384F8AF
:10165000A130002384F8A0302046FFF7A4FFBBE7A9
:101660002268536B23F00803536323680822DA636C
:10167000012384F8A130002384F8A0302046FFF72E
:1016800093FFAFE790F8A030012B27D02DE9F04170
:1016900094460F4606464FF0010880F8A0800223CA
:1016A00080F8A130342404FB020438340D460FCDF9
:1016B0000FC40FCD0FC40FCD0FC42B68236062463B
:1016C00039463046FFF72AFE3368C3F8248086F88F
:1016D000A180002086F8A000BDE8F08102207047BC
:1016E000024A136843F4807313607047007000402F
:1016F00010B582B01B4B1A6C42F080521A641B6CFE
:1017000003F080530193019B174A136843F480331D
:101710001360FEF715FF0446134B5B6813F4803F1C
:1017200008D1FEF70DFF001BB0F57A7FF4D9032036
:1017300002B010BD0C4A136843F400331360FEF787
:10174000FFFE0446084B5B6813F4003F07D1FEF729
:10175000F7FE001BB0F57A7FF4D90320E8E70020FC
:10176000E6E700BF00380240007000402DE9F0417C
:1017700005460F4616469846069C2B689B683B42DA
:1017800014BF01230023B34212D0B4F1FF3FF4D0C1
:101790002CB1FEF7D5FEA0EB0800A042EDD9042342
:1017A00085F841306B6C43F001036B64012000E06D
:1017B0000020BDE8F08181647047000030B583B03F
:1017C0000446FEF7BDFE002C54D0054694F8403088
:1017D000DBB2012B50D0012384F8403094F8413023
:1017E000002B3CD021680B6823F4F853A268013A1F
:1017F00043EA02230B60A36C00932B4600222021B6
:101800002046FFF7B3FF024618BB206803681B4958
:1018100019406568E36843EA0563E5692B43256A77
:101820002B430B43036020684168154B0B4025692F
:10183000616941EA0541A56929430B434360216879
:101840000B6843F001030B6000236364012384F8F9
:101850004130002384F84030104603B030BD84F896
:101860004030204604F038FC41F288312046FFF732
:10187000A2FFB7E70122EFE70222EDE72FFFFF000B
:10188000FEF8E0FF002800F0DB8170B582B004466E
:10189000036813F0010F29D0A24B9B6803F00C03DF
:1018A000042B1AD09F4B9B6803F00C03082B0FD01E
:1018B0006368B3F5803F40D0002B54D1994B1A6830
:1018C00022F480321A601A6822F480221A6039E009
:1018D000944B5B6813F4800FEAD0924B1B6813F4AF
:1018E000003F03D06368002B00F0AC81236813F045
:1018F000020F75D08B4B9B6813F00C0F5ED0894B99
:101900009B6803F00C03082B53D0E368002B00F016
:101910008A80844A136843F001031360FEF710FEC7
:101920000546804B1B6813F0020F73D1FEF708FECB
:10193000401B0228F5D9032087E17A4A136843F453
:101940008033136063682BB3FEF7FAFD0546754BD1
:101950001B6813F4003FC9D1FEF7F2FD401B642859
:10196000F5D9032071E1B3F5A02F09D06D4B1A68AA
:1019700022F480321A601A6822F480221A60E1E7A9
:10198000684B1A6842F480221A601A6842F4803266
:101990001A60D7E7FEF7D4FD0546624B1B6813F4C7
:1019A000003FA3D0FEF7CCFD401B6428F5D90320EF
:1019B0004BE15C4B5B6813F4800FA6D1594B1B685D
:1019C00013F0020F04D0E368012B01D001203CE1A9
:1019D000544A136823F0F803216943EAC1031360F2
:1019E000236813F0080F46D0636983B34D4A536FE1
:1019F00043F001035367FEF7A3FD0546494B5B6FB8
:101A000013F0020F37D1FEF79BFD401B0228F5D9DA
:101A100003201AE1434A136823F0F803216943EADB
:101A2000C1031360DCE73F4A136823F0010313602E
:101A3000FEF786FD05463B4B1B6813F0020FCFD027
:101A4000FEF77EFD401B0228F5D90320FDE0354A54
:101A5000536F23F001035367FEF772FD0546314BC8
:101A60005B6F13F0020F06D0FEF76AFD401B0228E1
:101A7000F5D90320E9E0236813F0040F7ED0294B49
:101A80001B6C13F0805F1ED1264B1A6C42F0805203
:101A90001A641B6C03F080530193019B0125224BB8
:101AA0001B6813F4807F10D0A368012B21D0002B7A
:101AB0003CD11C4B1A6F22F001021A671A6F22F0F8
:101AC00004021A671AE00025E9E7174A136843F48D
:101AD00080731360FEF734FD0646134B1B6813F446
:101AE000807FE1D1FEF72CFD801B6428F5D903200F
:101AF000ABE00C4A136F43F001031367A3685BB3B9
:101B0000FEF71EFD0646074B1B6F13F0020F34D184
:101B1000FEF716FD801B41F288339842F3D903206B
:101B200093E000BF0038024000700040052B09D050
:101B3000484B1A6F22F001021A671A6F22F0040252
:101B40001A67DBE7434B1A6F42F004021A671A6FF9
:101B500042F001021A67D1E7FEF7F2FC06463D4B60
:101B60001B6F13F0020F08D0FEF7EAFC801B41F256
:101B700088339842F3D9032067E0F5B9A369002BB5
:101B800062D0344A926802F00C02082A5FD0022B1D
:101B900019D0304A136823F080731360FEF7D0FC2D
:101BA00004462C4B1B6813F0007F47D0FEF7C8FC9F
:101BB000001B0228F5D9032047E0264A136C23F0C6
:101BC00080531364DAE7234A136823F080731360A9
:101BD000FEF7B6FC05461F4B1B6813F0007F06D0CE
:101BE000FEF7AEFC401B0228F5D903202DE0E36987
:101BF000226A1343626A43EA8213A26A5208013AD4
:101C000043EA0243E26A43EA026343F00053114AA3
:101C10005360136843F080731360FEF791FC044631
:101C20000C4B1B6813F0007F06D1FEF789FC001BEC
:101C30000228F5D9032008E0002006E0002004E097
:101C400001207047012000E0002002B070BD01209B
:101C5000FBE700BF00380240264B9B6803F00C03F3
:101C6000042B44D0082B01D0234870472DE9F04BBA
:101C7000204B5A6802F03F025B6813F4800F13D0C8
:101C80001C4B5968C1F3881100231C48A1FB0001BB
:101C9000FEF7BEFA174B5B68C3F3014301335B00E9
:101CA000B0FBF3F0BDE8F08B124B5B68C3F3881315
:101CB0001E4600275C010025E41A65EB0705A90113
:101CC00041EA9461A001001B61EB0501CB0043EAEE
:101CD0005073C400A01943EB07018B0243EA9053F1
:101CE0008402204619460023FEF792FAD2E7034801
:101CF000704700BF003802400024F40040787D01A6
:101D0000002800F0A28070B50446524B1B6803F017
:101D10000F038B420CD24F4A136823F00F030B437F
:101D20001360136803F00F038B4201D0012070BDD4
:101D3000236813F0020F17D013F0040F04D0464AA3
:101D4000936843F4E0539360236813F0080F04D0C2
:101D5000414A936843F4604393603F4A936823F099
:101D6000F003A068034393600D46236813F0010F4E
:101D700031D06368012B20D0022B25D0364A12685F
:101D800012F0020F63D034498A6822F00302134331
:101D90008B60FEF7D5FB06462F4B9B6803F00C03C8
:101DA0006268B3EB820F16D0FEF7CAFB801B41F2CC
:101DB00088339842F0D90320B9E7274A126812F411
:101DC000003FE0D10120B2E7234A126812F0007F01
:101DD000D9D10120ABE71F4B1B6803F00F03AB42C7
:101DE0000CD91C4A136823F00F032B4313601368AC
:101DF00003F00F03AB4201D0012098E7236813F0F2
:101E0000040F06D0144A936823F4E053E1680B43AF
:101E10009360236813F0080F07D00F4A936823F4E8
:101E20006043216943EAC1039360FFF715FF0A4B42
:101E30009B68C3F30313094AD35CD840084B18606E
:101E4000002004F091FC002071E701207047012080
:101E50006DE700BF003C02400038024054690008B2
:101E600008000020014B1868704700BF08000020E0
:101E700008B5FFF7F7FF044B9B68C3F38223034ABF
:101E8000D35CD84008BD00BF003802406469000838
:101E900008B5FFF7E7FF044B9B68C3F34233034ADF
:101EA000D35CD84008BD00BF003802406469000818
:101EB0000F2303600B4B9A6802F0030242609A689A
:101EC00002F0F00282609A6802F4E052C2609B68FD
:101ED000DB0803F4E0530361034B1B6803F00F03BB
:101EE0000B60704700380240003C0240F0B583B000
:101EF0000446036813F0010F0CD0AF4B9A6822F42C
:101F000000029A609A68416B0A439A60436BC3B1BE
:101F1000002600E00026236813F4002F15D0A64AFF
:101F2000D2F88C3023F44013E16B0B43C2F88C30B1
:101F3000E36BB3F5801F06D0002B00F01B8100255A
:101F400004E00126E7E70126F6E70025236813F4FD
:101F5000801F0FD0984AD2F88C3023F44003216CB4
:101F60000B43C2F88C30236CB3F5800F00F0048172
:101F700003B90125236813F0807F00D0012613F0F8
:101F8000200F40F0FB80236813F0100F0CD08A4B19
:101F9000D3F88C2022F08072C3F88C20D3F88C20E8
:101FA000A16B0A43C3F88C20236813F4804F08D038
:101FB000814AD2F8903023F44033616E0B43C2F86B
:101FC0009030236813F4004F08D07B4AD2F8903049
:101FD00023F44023A16E0B43C2F89030236813F41E
:101FE000803F08D0744AD2F8903023F44013E16E59
:101FF0000B43C2F89030236813F4003F08D06E4AB8
:10200000D2F8903023F44003216F0B43C2F8903094
:10201000236813F0400F08D0674AD2F8903023F0BD
:102020000303616C0B43C2F89030236813F0800FF8
:1020300008D0614AD2F8903023F00C03A16C0B4316
:10204000C2F89030236813F4807F08D05A4AD2F83F
:10205000903023F03003E16C0B43C2F890302368DA
:1020600013F4007F08D0544AD2F8903023F0C00314
:10207000216D0B43C2F89030236813F4806F08D0B1
:102080004D4AD2F8903023F44073616D0B43C2F88F
:102090009030236813F4006F08D0474AD2F890308C
:1020A00023F44063A16D0B43C2F89030236813F40E
:1020B000805F08D0404AD2F8903023F44053E16D5D
:1020C0000B43C2F89030236813F4005F08D03A4AFB
:1020D000D2F8903023F44043216E0B43C2F8903085
:1020E000236813F4800F08D0334AD2F8903023F0DD
:1020F0008063A16F0B43C2F89030236813F4001F74
:102100000DD02D4AD2F8903023F00063E16F0B43DD
:10211000C2F89030E36FB3F1006F00F0998023684C
:1021200013F0080F00D0012513F4802F08D0224AA5
:10213000D2F8903023F04073616F0B43C2F89030B7
:10214000236813F4000F09D01B4AD2F8903023F013
:102150008053D4F880100B43C2F89030002E79D110
:102160002368B3F1007F75D0002D40F00681002078
:1021700003B0F0BD0125E9E60126F9E60E4B1A6C25
:1021800042F080521A641B6C03F080530193019B50
:102190000A4A136843F480731360FEF7D1F90746C7
:1021A000064B1B6813F4807F0AD1FEF7C9F9C01BE8
:1021B0006428F5D90320DBE70038024000700040B6
:1021C000B34B1B6F13F4407315D0226B02F44072B3
:1021D0009A4210D0AE4B1A6F22F44072196F41F43C
:1021E00080311967196F21F4803119671A671B6FE5
:1021F00013F0010F12D1236B03F44072B2F5407F4C
:102200001DD0A34A936823F4F8139360A0490B6F81
:10221000226BC2F30B0213430B67B4E6FEF790F98F
:1022200007469B4B1B6F13F0020FE4D1FEF788F9B2
:10223000C01B41F288339842F3D9032098E79448B1
:10224000826822F4F812934919400A438260DDE75C
:10225000012564E78E4A136823F080631360FEF75C
:102260006FF906468A4B1B6813F0006F06D0FEF725
:1022700067F9801B6428F5D9032079E7236813F0F8
:10228000010F13D0636B8BB9814AD2F88430D2F836
:102290008410606803F4403343EA801301F07061F6
:1022A0000B43A16843EA0173C2F88430236813F436
:1022B000002F03D0E26BB2F5801F06D013F4801F0D
:1022C0001ED0236CB3F5800F1AD1714AD2F8843036
:1022D000D2F88410606803F4403343EA8013E06866
:1022E00043EA006301F0E0410B43C2F88430D2F8C6
:1022F0008C3023F01F03616A01390B43C2F88C3024
:10230000236813F0807F11D0614AD2F88400D2F89C
:102310008410666823691B0443EA861300F070602A
:10232000034301F0E0410B43C2F88430236813F00B
:10233000007F0DD0626823691B0443EA8213E268C0
:1023400043EA0263A26843EA0273514AC2F8843046
:102350004F4A136843F080631360FEF7F1F80646B6
:102360004B4B1B6813F0006F7FF4FEAEFEF7E8F8EE
:10237000801B6428F4D90320FAE6454A136823F049
:1023800080531360FEF7DCF80546414B1B6813F0E1
:10239000005F06D0FEF7D4F8401B6428F5D903206F
:1023A000E6E6236813F4002F01D0E26B22B113F4A8
:1023B000801F1DD0236CDBB9354AD2F88830D2F8A3
:1023C0008810606903F4403343EA8013A06943EA4C
:1023D000006301F0E0410B43C2F88830D2F88C3042
:1023E00023F4F853A16A013943EA0123C2F88C307F
:1023F000236813F4001F03D0E36FB3F1006F31D0F3
:10240000236813F0080F19D0214AD2F88810D2F8A7
:102410008830606903F4403343EA801301F070614F
:102420000B43E16943EA0173C2F88830D2F88C307B
:1024300023F44033E16A0B43C2F88C30144A13682A
:1024400043F080531360FEF77BF80446104B1B6883
:1024500013F0005F19D1FEF773F8001B6428F5D95B
:10246000032085E60A4AD2F88800D2F88810656908
:10247000236A1B0443EA851300F07060034301F0F4
:10248000E0410B43C2F88830BAE7002070E600BF95
:1024900000380240FFFCFF0F10B4B0F5002F07D04A
:1024A0000023B0F5801F65D018465DF8044B7047D7
:1024B000614BD3F88C3003F44013B3F5801F2ED05A
:1024C000B3F5001F54D00BB10023EAE75A4B5B6809
:1024D00013F4800F1BD1584B5A6802F03F02574B40
:1024E000B3FBF2F3544AD2F88810C1F30361D2F877
:1024F0008840C4F3881403FB04F3B3FBF1F3D2F870
:102500008C20C2F304220132B3FBF2F3C9E74A4B39
:102510005A6802F03F024A4BB3FBF2F3E2E7464B44
:102520005B6813F4800F1BD1434B5A6802F03F02E3
:10253000424BB3FBF2F3404AD2F88410C1F303617B
:10254000D2F88440C4F3881403FB04F3B3FBF1F323
:10255000D2F88C2002F01F020132B3FBF2F3A0E7A5
:10256000354B5A6802F03F02354BB3FBF2F3E2E71A
:10257000344B96E7304AD2F88C2002F44002B2F590
:10258000800F2DD0B2F5000F53D0002A8CD12A4BEA
:102590005B6813F4800F1BD1274B5A6802F03F028F
:1025A000264BB3FBF2F3244AD2F88800C0F3036051
:1025B000D2F88810C1F3881103FB01F3B3FBF0F3E9
:1025C000D2F88C00C0F304200130B3FBF0F36BE7CA
:1025D000194B5A6802F03F02194BB3FBF2F3E2E7E2
:1025E000154B5B6813F4800F1BD1134B5A6802F034
:1025F0003F02124BB3FBF2F30F4AD2F88400C0F350
:102600000360D2F88410C1F3881103FB01F3B3FB1C
:10261000F0F3D2F88C0000F01F000130B3FBF0F3B0
:1026200042E7054B5A6802F03F02054BB3FBF2F359
:10263000E2E7044B38E700BF003802400024F40012
:1026400040787D010080BB0038B504460268D3683D
:1026500023F0A003D360FDF773FF05462368DB6812
:1026600013F0200F07D1FDF76BFF401BB0F57A7F09
:10267000F4D9032000E0002038BD38B50368DA68DB
:1026800012F0400F01D0002038BD04464FF0FF3259
:10269000DA60FDF755FF05462368DB6813F0400F4D
:1026A00007D1FDF74DFF401BB0F57A7FF4D9032029
:1026B000EAE70020E8E7000000284AD038B50446E1
:1026C000437F002B3AD0022363772368CA225A62E1
:1026D000236853225A622046FFF7CFFF02460028A4
:1026E00030D1216888681C4B03408B60206881686A
:1026F000636825692B4365692B430B43836023681B
:10270000E168196121680B69A06843EA00430B6125
:102710002168CB6823F08003CB602168CB6C23F069
:102720000803CB642168CB6CA0690343CB642368A6
:10273000FF21596201236377104638BD037703F008
:102740003DFDC0E72368FF225A620423637701221C
:10275000F2E7012210467047BFFF8FFF002302E01F
:1027600001330A38C0B20928FAD81B01DBB218437A
:1027700070470000F8B5037F012B76D00D46044664
:102780000123037702234377002A44D103689B681F
:1027900013F0400F01D100230B732878FFF7DEFF01
:1027A00006046878FFF7DAFF46EA0026A878FFF704
:1027B000D5FF0643287B46EA00462368CA225A62B0
:1027C000236853225A622046FFF757FF0746002826
:1027D00033D12268264B334013602268936823F478
:1027E0008023936021688B682A69686902431343D8
:1027F0008B602268D36823F08003D36023689B68D2
:1028000013F0200F23D02368FF225A62012363773D
:102810000023237719E003689B6813F0400F01D170
:1028200000230B7328786E78360246EA0046A878B3
:102830000643287B46EA0046BFE72368FF225A6228
:10284000042363770023237701273846F8BD204609
:10285000FFF7FAFE0028D6D02368FF225A6204232D
:102860006377002323770127EFE70227EDE700BF17
:102870007F7F7F0070B5037F012B64D00123037736
:10288000022343773AB94B7813F0100F03D003F0CB
:10289000EF030A334B700E460446002A30D1C87845
:1028A000FFF75CFF05047078FFF758FF45EA002545
:1028B000B078FFF753FF0543307845EA4035236889
:1028C000CA225A62236853225A622046FFF7D5FE75
:1028D000064600BB22681D4B2B4053602268D3681C
:1028E00023F08003D36023689B6813F0200F1CD073
:1028F0002368FF225A62012363770023237712E0C3
:10290000C8784D782D0245EA004588780543087857
:1029100045EA4035D3E72368FF225A6204236377F0
:10292000002323770126304670BD2046FFF78CFE3A
:102930000028DDD02368FF225A6204236377002336
:1029400023770126EFE70226EDE700BF3FFFFF00F8
:10295000F8B5037F012B00F0A9800D460446012342
:10296000037702234377002A4DD103689B6813F055
:10297000400F01D100230B732E6A2878FFF7EEFE7B
:1029800007046878FFF7EAFE47EA0027A878FFF710
:10299000E5FE0743287B47EA004795F82400FFF748
:1029A000DDFE47EA00600643AB691E436F68EB69D2
:1029B0001F432368CA225A62236853225A62AB6AB1
:1029C000B3F5807F39D02268936823F40073936055
:1029D0002268936823F400539360FDF7B1FD054628
:1029E0002368DA6812F0020F50D1FDF7A9FD401BF1
:1029F000B0F57A7FF4D92368FF225A62032060770A
:102A00000023237751E003689B6813F0400F01D146
:102A100000230B732A6A29786B781B0243EA01436F
:102A2000A9780B43297B43EA014395F8241043EA34
:102A300001631343AE691E43B8E72268936823F429
:102A4000807393602268936823F480539360FDF74A
:102A500077FD05462368DA6812F0010F0DD1FDF706
:102A60006FFD401BB0F57A7FF4D92368FF225A62CC
:102A7000032060770023237717E0DE6123685F641B
:102A80002268936843F48073936007E01E622368B2
:102A90009F642268936843F4007393602368FF2265
:102AA0005A620123637700202077F8BD0220FCE7FB
:102AB00070B4047F012C27D00124047702234377CC
:102AC0000568AE68A3F60B0333401943CA236B6253
:102AD000036853255D620568EB6C23F00603EB6425
:102AE0000568EB6C1A43EA640368996002689368AE
:102AF00043F4006393600368FF225A624477002323
:102B00000377184670BC70470220FBE70E4B1B682A
:102B10000E4AA2FB03231B0B9B0001680A6822F4E8
:102B200080320A605A1E3BB103681968134611F4DB
:102B3000803FF7D100207047D0F8803043F0400349
:102B4000C0F8803003207047080000201BECCB95B4
:102B5000002800F0EB8070B5044690F87D30002B23
:102B600000F0B980022384F87D302046FFF7CEFFC5
:102B7000E368012B00F0B680022B00F0B180002248
:102B8000A368022B00F0B080032B00F0B080012B73
:102B900000F0B28000252368654866498B4218BF63
:102BA000834240F0AC80644B1A60E36923B323682E
:102BB0005F49604A934218BF8B4200F0A380002017
:102BC00023685E495E4A934218BF8B4200F09F80A3
:102BD00000EB80004100E3695B02B1FBF3F1594B6C
:102BE000A3FB0123DB08236203EB830042008A1A64
:102BF000082A01D9013323626268022A14BF002324
:102C00000123002A08BF0123002B00F08780E36B1B
:102C1000012B00F081804FF4007621680B684A4A4E
:102C20001A400A60226811686368206B0343606B76
:102C30000343A06B034333432B43606A0343206980
:102C4000034360690343206A43EA00530B43136064
:102C5000226851683D4B0B40536021684A68A36964
:102C6000A06A0343E06A034313434B602268916800
:102C7000374B0B40936020688268236C013B216DC9
:102C80000B43A16C0B43E16C0B43616C013943EACC
:102C90000123134383602268D36823F47D6323F008
:102CA0000F031B041B0CD3602068C268636DA16D09
:102CB0000B43216E43EA0143E16D013943EA0123ED
:102CC0001343C3600020C4F88000012384F87D30E2
:102CD00084F87C0070BD80F87C3003F0EFFC41E7A5
:102CE00020224DE710224BE74FF4006553E742F0F6
:102CF00001024FF400654EE74FF480654BE7154B3A
:102D00001A6052E74FF40020FFF7C6FB58E74FF474
:102D10008010FFF7C1FB5BE700267EE7E36B012B2A
:102D200001D0002679E74FF4007676E7012070475E
:102D3000045801402458014000580140045C0140FF
:102D4000245C0140CDCCCCCC10C005FFF01FFFFFB0
:102D50000080F8FF005C014070B582B0044600239B
:102D60000193006801F09CFE054610B1284602B0B0
:102D700070BD206801F0A7FE0646F8B10023A364E9
:102D80002846C0B9019B5A1C01924FF6FF7293422C
:102D900040D00021206801F0ADFE00283DD1002187
:102DA000206801F0BFFE00283AD10021206801F020
:102DB00030FDC00FE5E700236364D7E70123A36478
:102DC0000346E0B9019B5A1C01924FF6FF729342F1
:102DD00029D00021206801F08DFE05460028C5D1CC
:102DE0004FF08041206801F09DFE05460028BDD1CE
:102DF0000021206801F00DFD0346C00FE1E713F04C
:102E0000804F03D1002363643546AFE70123636439
:102E10003546ABE74FF08075A8E74FF08055A5E742
:102E20004FF08055A2E74FF080759FE72DE9F04104
:102E300088B004460F46FDF783FB06460023009347
:102E400001930821206801F0FBFD054618B12846D2
:102E500008B0BDE8F081216D0904206801F04AFE48
:102E600005460028F3D14FF0FF3302930823039364
:102E70003023049302230593002306930123079331
:102E800002A9206801F0CAFD206801F07DFE054618
:102E90000028DCD1804605E0FDF752FB801BB0F135
:102EA000FF3F43D02068426B40F22A431A420AD1C6
:102EB000436B13F4001FEFD001F08AFC4DF828009B
:102EC00008F10108E8E7436B13F0080F25D1436BC5
:102ED00013F0020F24D1436B13F0200F23D140F2E3
:102EE000FF538363009A130203F47F0343EA0263F0
:102EF000110A01F47F410B4343EA12637B60019A9C
:102F0000130203F47F0343EA0263110A01F47F41D1
:102F10000B4343EA12633B6099E70825856396E714
:102F20000225856393E72025856390E74FF00045F0
:102F30008DE710B582B00446002100910191006830
:102F400001F067FC10F0007F16D169462046FFF7BC
:102F50006DFF034690B9019B13F4802F11D0216DB2
:102F60000904206801F0C6FD034638B90221206833
:102F700001F0F2FD034601E04FF40063184602B091
:102F800010BD4FF08063F9E710B582B00446002110
:102F900000910191006801F03CFC10F0007F16D117
:102FA00069462046FFF742FF034690B9019B13F4A0
:102FB000803F11D0216D0904206801F09BFD03467C
:102FC00038B90021206801F0C7FD034601E04FF445
:102FD0000063184602B010BD4FF08063F9E730B4CB
:102FE000436E9A0F0A70C3F383624A70C3F301639E
:102FF0008B7090F86630CB7090F865300B7190F85C
:1030000064304B7190F86B301B01CB80B0F86A30A4
:10301000CC88C3F303122243CA8003F00F030B7260
:1030200090F86930DA094A72C3F380128A72C3F3E6
:103030004012CA72C3F300120A7300224A73426C30
:10304000002A40F092809B0203F440630B61836E80
:103050000A699B0003F47F7313430B61C36E0A6913
:1030600042EA93720A61C3F3C2620A75C3F3026350
:103070004B75C26EC2F30743C2F342548C75C2F360
:103080008242CA755B0003F006030B76C26EC2F380
:1030900007230C7EC2F3C03222430A760A6901324A
:1030A00042650C7E023402FA04F444650A7AD5B211
:1030B0000122AA408265520A02FB04F2C2654FF463
:1030C00000720266C3F380124A765B0003F07E034F
:1030D0008B76C36E8A7EC3F3C01422438A7603F0D4
:1030E0007F03CB76036F1A0EDC0F0C77C3F34174AA
:1030F0004C77C3F382638B77930003F00C03CB7799
:10310000036FCA7FC3F381542243CA77C3F340528B
:1031100081F82020002281F82120C3F3004381F8A8
:103120002230036FC3F3C03481F82340C3F38034EB
:1031300081F82440C3F3403481F82540C3F30034C0
:1031400081F82640C3F3812481F82740C3F301238B
:1031500081F82830036FC3F3460381F82930012337
:1031600081F82A30104630BC7047012A0CD0036821
:1031700040F2FF529A63836B43F0805383630122D2
:1031800080F834201046EEE7836E1B0403F47C13B2
:103190000B6190F86F200B6943EA02230B610A6907
:1031A00090F86E3013430B6190F86D300A6901326C
:1031B00092024265C2654FF400728265026681E741
:1031C00070B590B004460123ADF81230006801F0EC
:1031D00006FB00286AD0636C032B43D1636C032B7E
:1031E0005BD1636C032B1DD0BDF81210216509045F
:1031F000206801F0F6FC0546002859D1002120681E
:1032000001F007FB60660421206801F002FBA06664
:103210000821206801F0FDFAE0660C21206801F029
:10322000F8FA20670421206801F0F3FA000DE06449
:1032300005A92046FFF7D3FE226D12040023206863
:1032400001F016FC054698BB234653F8106B93E833
:1032500007008DE80700043494E80E00304601F0C2
:103260009BFA25E0206801F0A7FC054600BB002181
:10327000206801F0CEFA60670421206801F0C9FAE5
:10328000A0670821206801F0C4FAE0670C212068DB
:1032900001F0BFFAC4F88000A0E70DF11201206828
:1032A00001F0B4FC054600289BD001E04FF080659A
:1032B000284610B070BD10B58AB0044600230493B0
:1032C0000593069307930893762309930AAB13E9B2
:1032D00007008DE8070004AB0ECB206801F05CFA14
:1032E0002268536823F480735360206801F073FAF6
:1032F0002268536843F4807353600220FDF726F977
:103300002046FFF729FD40B10246012084F8340031
:10331000A36B1343A3630AB010BD2046FFF750FF11
:10332000024630B1012084F83400A36B1343A36339
:10333000F1E70020EFE7A8B110B5044690F834306B
:1033400063B1032384F834302046FFF7B4FF002034
:10335000A0632063012384F8343010BD037702F0AA
:103360003DFFEEE70120704730B58BB004460D46B7
:10337000032380F83430436C032B1CD0B1F5805FFD
:1033800008D0B1F5006F0AD079B1836B43F00063C8
:10339000836314E0836B43F0805383630FE0FFF794
:1033A000C8FDA36B1843A06309E0FFF7EDFDA36B15
:1033B0001843A06303E0836B43F080538363A36BE4
:1033C00043B1236840F2FF529A63012084F834002D
:1033D0000BB030BD63680493A3680593E36806935C
:1033E000079563690893A36909930AAB13E907007A
:1033F0008DE8070004AB0ECB206801F0CDF9012366
:1034000084F834300020E3E7D8B138B504460D46DF
:1034100090F82C3083B1022384F82C30211D2068D1
:1034200001F098F862682946206801F0CDF8012380
:1034300084F82C30002038BD80F82D3003F03AF9A4
:10344000E9E7012070470000002830D010B504469D
:1034500090F8453033B3022384F84530226813686E
:1034600023F00303136021680B68124A1A40A36912
:1034700060680343A0680343E06803432069034393
:1034800060690343E0690343206A0343606A0343BE
:10349000A06A034313430B600020A064012384F857
:1034A000453010BD80F8443002F0E4FED3E701203F
:1034B000704700BF0784F8FF002858D010B50446B5
:1034C0000023836290F85D30002B45D0022384F8FE
:1034D0005D302268136823F040031360E368B3F59E
:1034E000E06F3ED90022B3F5706F18BFB3F5E06FFF
:1034F00001D00021A162216B21B9B3F5E06F33D96E
:10350000022323636368A1680B4321690B4361694C
:103510000B43A16901F400710B43E1690B43216A7C
:103520000B43A06A216803430B60638B03F0040321
:10353000616A0B43616B0B43E1680B4321681343E2
:103540004B602268D36923F40063D36100202066B6
:10355000012384F85D3010BD80F85C3002F0BAFEC3
:10356000B4E74FF48052BEE701232363CAE701208A
:103570007047000070B4036A23F001030362036A1A
:1035800042688569124C2C400D68254323F00204E3
:103590008B6823430F4C104EB04218BFA0420CBFA3
:1035A0000124002405D123F00803CE68334323F01F
:1035B00004032CB122F440724C6914438A692243FB
:1035C000426085614A684263036270BC704700BF15
:1035D0008CFFFEFF000001400004014070B4036A4C
:1035E00023F480730362036A4268C569144C2C405B
:1035F0000E68264323F400738C6843EA0423114CBD
:10360000114DA84218BFA0420CBF0124002406D1CE
:1036100023F40063CD6843EA052323F480633CB1BF
:1036200022F440524C6942EA04128C6942EA0412C4
:103630004260C6614A68C263036270BC704700BFE3
:103640008CFFFEFF000001400004014070B4036ADB
:1036500023F480530362036A4468C5690D4A2A4013
:103660000D6842EA052223F400538D6843EA0533CE
:10367000094E0A4DA84218BFB04204D124F4804438
:103680004D6944EA85144460C2614A680264036279
:1036900070BC7047FF8CFFFE000001400004014039
:1036A00070B4036A23F480330362036A4268446D92
:1036B0000D4D25400C682C4323F400338D6843EAFC
:1036C00005430A4E0A4DA84218BFB04204D122F465
:1036D00080324D6942EA0522426044654A6882654B
:1036E000036270BC704700BF8FFFFEFF0000014007
:1036F0000004014070B4036A23F480130362036A78
:103700004468456D0D4A2A400D6842EA052223F4BB
:1037100000138D6843EA0553094E0A4DA84218BFAD
:10372000B04204D124F480244D6944EA85244460E5
:1037300042654A68C265036270BC7047FF8FFFFE36
:10374000000001400004014010B4036A046A24F040
:1037500001040462846924F0F00444EA021223F0B4
:103760000A030B43826103625DF8044B704710B497
:10377000036A23F0100303628469036A24F470442B
:1037800044EA023223F0A00343EA01138261036298
:103790005DF8044B7047836823F07003194341F0D0
:1037A0000701816070470000022380F83D30026805
:1037B0009168084B0B40062B18BFB3F5803F03D030
:1037C000136843F001031360012380F83D300020AB
:1037D000704700BF070001000268D36843F001038F
:1037E000D36002689168064B0B40062B18BFB3F5F7
:1037F000803F03D0136843F001031360002070473B
:1038000007000100704770477047704710B50446C5
:1038100003681A6912F0020F11D0DA6812F0020F71
:103820000DD06FF002021A610123037703689B69D0
:1038300013F0030F79D0FFF7E6FF00232377236807
:103840001A6912F0040F12D0DA6812F0040F0ED0C9
:103850006FF004021A610223237723689B6913F433
:10386000407F68D02046FFF7CEFF002323772368F0
:103870001A6912F0080F12D0DA6812F0080F0ED091
:103880006FF008021A61042323772368DB6913F0C1
:10389000030F57D02046FFF7B6FF00232377236896
:1038A0001A6912F0100F12D0DA6812F0100F0ED051
:1038B0006FF010021A61082323772368DB6913F481
:1038C000407F46D02046FFF79EFF002323772368E2
:1038D0001A6912F0010F03D0DA6812F0010F3FD11C
:1038E00023681A6912F0800F03D0DA6812F0800F93
:1038F0003DD123681A6912F4807F03D0DA6812F090
:10390000800F3BD123681A6912F0400F03D0DA68A8
:1039100012F0400F39D123681A6912F0200F03D03A
:10392000DA6812F0200F37D110BD01F014FB2046E9
:10393000FFF76AFF81E7204601F00DFB2046FFF705
:1039400063FF92E7204601F006FB2046FFF75CFF8D
:10395000A3E7204601F0FFFA2046FFF755FFB4E742
:103960006FF001021A61204602F046F9B8E76FF0E5
:1039700080021A61204600F04AFBBAE76FF48072B9
:103980001A61204600F044FBBCE76FF040021A6168
:103990002046FFF73AFFBEE76FF020021A6120468B
:1039A00000F034FBC0E7000070B403683A4CA0425A
:1039B00014BF00240124B0F1804F14BF224644F00C
:1039C0000102AAB9354DA84214BF00250125344E85
:1039D000B0420DD065B905F1804505F58235A842A4
:1039E00014BF0025012506F50066B04200D01DB1C8
:1039F00023F070034D682B43002A33D1274A9042AD
:103A000014BF00220122264DA8422BD052BB02F146
:103A1000804202F58232904214BF0022012205F555
:103A20000065A8421ED0EAB91E4A904214BF002287
:103A3000012205F59A35A84214D09AB91A4A904243
:103A400014BF0022012205F50065A8420AD04AB938
:103A5000164A904214BF00220122A5F59635A842CD
:103A600000D01AB123F44073CA68134323F08003D3
:103A70004A69134303608A68C2620A6882620C4B17
:103A8000984214BF234644F001030BB10B69036352
:103A90000123436170BC70470000014000080040F2
:103AA0000004004000440140001800400020004095
:103AB00000040140A8B110B5044690F83D305BB158
:103AC000022384F83D30211D2068FFF76DFF01239C
:103AD00084F83D30002010BD80F83C3002F042FCFC
:103AE000EEE701207047A8B110B5044690F83D30CC
:103AF0005BB1022384F83D30211D2068FFF754FF9D
:103B0000012384F83D30002010BD80F83C30FFF7E1
:103B100079FEEEE701207047A8B110B5044690F891
:103B20003D305BB1022384F83D30211D2068FFF752
:103B30003BFF012384F83D30002010BD80F83C306D
:103B400002F09AFCEEE701207047000070B4036AAF
:103B500023F010030362036A42688569144C2C4009
:103B60000D6844EA052523F020038C6843EA04131A
:103B7000104C114EB04218BFA0420CBF01240024CB
:103B800006D123F08003CE6843EA061323F04003F6
:103B90003CB122F440624C6942EA84028C6942EAF8
:103BA0008402426085614A688263036270BC704728
:103BB000FF8CFFFE000001400004014090F83C3003
:103BC000012B34D010B50446012380F83C30022389
:103BD00080F83D30142A0FD8DFE802F00B0E0E0EED
:103BE000150E0E0E190E0E0E1D0E0E0E210E0E0EC1
:103BF00025000068FFF7BEFC012384F83D3000205B
:103C000084F83C0010BD0068FFF7A0FFF4E70068EF
:103C1000FFF7E4FCF0E70068FFF718FDECE7006849
:103C2000FFF73EFDE8E70068FFF764FDE4E70220E8
:103C3000704738B590F83C30012B00F092800D466B
:103C40000446012380F83C30022380F83D30142ADA
:103C50001ED8DFE802F00B1D1D1D241D1D1D381D83
:103C60001D1D4B1D1D1D5F1D1D1D72000068FFF7F2
:103C700081FC2268936943F0080393612268936989
:103C800023F0040393612268936929690B439361CC
:103C9000012384F83D30002084F83C0038BD0068E2
:103CA000FFF754FF2268936943F40063936122682D
:103CB000936923F48063936122689369296943EAD5
:103CC00001239361E4E70068FFF788FC2268D36969
:103CD00043F00803D3612268D36923F00403D3615E
:103CE0002268D36929690B43D361D1E70068FFF7E4
:103CF000ADFC2268D36943F40063D3612268D369C1
:103D000023F48063D3612268D369296943EA0123DC
:103D1000D361BDE70068FFF7C3FC2268536D43F031
:103D2000080353652268536D23F00403536522682A
:103D3000536D29690B435365AAE70068FFF7DAFC66
:103D40002268536D43F4006353652268536D23F476
:103D5000806353652268536D296943EA01235365E3
:103D600096E702209AE710B4846824F47F4442EA7C
:103D700003230B43234383605DF8044B704700002B
:103D800090F83C30012B64D010B50446012380F834
:103D90003C30022380F83D30026890682E4B03408F
:103DA00093600B68402B4AD013D9602B3DD01ED9AD
:103DB000702B28D0B3F5005F30D1CB684A68896892
:103DC0002068FFF7D0FF2268936843F48043936034
:103DD00024E0102B06D004D9202B03D0302B01D0A7
:103DE0001CE0DBB919462068FFF7D5FC16E0502B24
:103DF00014D1CA6849682068FFF7A6FC50212068E2
:103E0000FFF7C9FC0AE0CB684A6889682068FFF7B9
:103E1000AAFF2268936843F077039360012384F834
:103E20003D30002084F83C0010BDCA684968206815
:103E3000FFF79DFC60212068FFF7ADFCEEE7CA6844
:103E400049682068FFF780FC40212068FFF7A3FC49
:103E5000E4E70220704700BF8800FEFF10B401F0C5
:103E60001F01012303FA01F4036A23EA0403036236
:103E7000036A8A40134303625DF8044B70470000F5
:103E800010B5044601220068FFF7E8FF23680C49DB
:103E90000C4A934218BF8B4203D15A6C42F4004241
:103EA0005A6422689168084B0B40062B18BFB3F583
:103EB000803F03D0136843F001031360002010BD5E
:103EC00000000140000401400700010010B5044655
:103ED00001220068FFF7C2FF23680C490C4A934295
:103EE00018BF8B4203D15A6C42F400425A642268D4
:103EF0009168084B0B40062B18BFB3F5803F03D0E9
:103F0000136843F001031360002010BD000001405E
:103F1000000401400700010090F83C30012B27D03D
:103F200070B4012380F83C30022380F83D300368F0
:103F30005A689D680F4E104CA34218BFB34203D17C
:103F400022F470024C68224322F070020C68224373
:103F500025F08004896821435A6003689960012331
:103F600080F83D30002380F83C30184670BC704724
:103F700002207047000001400004014090F83C30EE
:103F8000012B3CD030B4012380F83C30CB6823F4C3
:103F900040738A68134323F480634A68134323F40D
:103FA00000630A68134323F480530A69134323F41C
:103FB00000534A69134323F480438A6A134323F46A
:103FC00070238A6943EA024302680E4D0E4CA242F6
:103FD00018BFAA420CD123F470034C6A43EA04537D
:103FE00023F08073CC69234323F00073096A0B43E9
:103FF0005364002380F83C30184630BC70470220E0
:10400000704700BF00000140000401407047704746
:104010007047000010B50446836802691343426983
:104020001343C269134301680868994A0240134365
:104030000B602268536823F44053E1680B435360DC
:10404000A269236A1A4321688B6823F430631343FF
:104050008B6023688F4A934218D08F4A934228D0AE
:104060008E4A93423DD08E4A934250D08D4A93421D
:1040700062D08D4A934277D08C4A934200F08C8074
:104080008B4A934200F0A0801023B6E0894BD3F80E
:10409000903003F00303032B09D8DFE803F0020498
:1040A000AD060123A9E00423A7E00823A5E010231F
:1040B000A3E0804BD3F8903003F00C030C2B0ED808
:1040C000DFE803F0070D0D0D090D0D0DA90D0D0D08
:1040D0000B00002391E004238FE008238DE01023E0
:1040E0008BE0744BD3F8903003F03003102B0AD0E0
:1040F00006D9202B00F09180302B06D108237CE0DC
:104100001BB9002379E0042377E0102375E0694BA5
:10411000D3F8903003F0C003402B09D005D9802B91
:104120007DD0C02B06D1082367E01BB9002364E0D3
:10413000042362E0102360E05E4BD3F8903003F478
:104140004073B3F5807F0BD007D9B3F5007F68D0FB
:10415000B3F5407F06D108234FE01BB900234CE0A4
:1041600004234AE0102348E0524BD3F8903003F484
:104170004063B3F5806F0BD007D9B3F5006F52D011
:10418000B3F5406F06D1082337E01BB9012334E0B3
:10419000042332E0102330E0464BD3F8903003F490
:1041A0004053B3F5805F0BD007D9B3F5005F3CD027
:1041B000B3F5405F06D108231FE01BB900231CE0C4
:1041C00004231AE0102318E03A4BD3F8903003F49C
:1041D0004043B3F5804F0BD007D9B3F5004F26D03D
:1041E000B3F5404F06D1082307E01BB9002304E0D4
:1041F000042302E0102300E00223E269B2F5004F3D
:1042000017D0082B00F2B380DFE803F0768B95B16E
:104210009EB1B1B1A8000223EFE70223EDE702232C
:10422000EBE70223E9E70223E7E70223E5E70223BE
:10423000E3E7082B5DD8DFE803F0051F3F5C485C2F
:104240005C5C5300FDF714FE6268530803EB400307
:10425000B3FBF2F39BB20020A3F110014FF6EF7213
:10426000914200F287809AB222F00F02C3F3420318
:1042700013432268D36050E0FDF70AFE62685308DA
:1042800003EB4003B3FBF2F39BB20020E4E700BF73
:10429000F369FFEF00100140004400400048004077
:1042A000004C0040005000400014014000780040E5
:1042B000007C0040003802406268304B03EB520340
:1042C000B3FBF2F39BB20020C6E7FDF7C5FC6268C2
:1042D000530803EB4003B3FBF2F39BB20020BBE7B0
:1042E0006268530803F58033B3FBF2F39BB20020FE
:1042F000B2E701200023AFE7FDF7BAFD626800EBEB
:104300005203B3FBF2F39BB20020A3F110014FF66E
:10431000EF72914230D82268D3600023236663662F
:1043200010BDFDF7B5FD626800EB5203B3FBF2F37D
:104330009BB20020E9E76268114B03EB5203B3FB29
:10434000F2F39BB20020E0E7FDF786FC626800EB29
:104350005203B3FBF2F39BB20020D6E76268530826
:1043600003F50043B3FBF2F39BB20020CDE701203D
:104370000023CAE70120D0E70120CEE70048E8018A
:104380000024F400436A13F0010F06D0026853685A
:1043900023F40033816A0B435360436A13F0020F26
:1043A00006D00268536823F48033C16A0B4353601C
:1043B000436A13F0040F06D00268536823F4802385
:1043C000016B0B435360436A13F0080F06D0026879
:1043D000536823F40043416B0B435360436A13F06B
:1043E000100F06D00268936823F48053816B0B434F
:1043F0009360436A13F0200F06D00268936823F499
:104400000053C16B0B439360436A13F0400F0AD013
:104410000268536823F48013016C0B435360036CF0
:10442000B3F5801F0BD0436A13F0800F06D00268EB
:10443000536823F40023816C0B4353607047026878
:10444000536823F4C003416C0B435360EBE72DE941
:10445000F04105460F4616469846069C2B68DB69D8
:1044600037EA03030CBF01230023B3421CD1B4F18C
:10447000FF3FF3D0FCF764F8A0EB0800A04201D89E
:10448000002CEBD12A68136823F4D07313602A68D8
:10449000936823F00103936020236B67AB670023CD
:1044A00085F87030032000E00020BDE8F08110B5F1
:1044B00082B004460023C367FCF742F82268126802
:1044C00012F0080F07D120236367A367002084F848
:1044D000700002B010BD6FF07E43009303460022CF
:1044E0004FF400112046FFF7B2FF0028EBD0032065
:1044F000EFE768B310B50446436F03B32423636743
:104500002268136823F0010313602046FFF782FD41
:10451000012813D0636ABBB92268536823F490431F
:1045200053602268936823F02A039360226813681B
:1045300043F0010313602046FFF7B9FF10BD80F878
:10454000703002F047F8D9E72046FFF71BFFE3E79A
:104550000120704730B40B68012B18D00368194A4A
:104560001A404B688C682343CC6823430C6923436F
:104570004C6923438C692343CC6923430C6A23434E
:10458000496A0B4313430360002030BC7047046842
:1045900024F4F844CB690A6A1A434B6A1A4322434B
:1045A0004368084C1C404B688D682B43CD682B43F7
:1045B0000D692B434D692B4389690B4323430260EB
:1045C0004360E1E70080FFFF30B4012A21D0826818
:1045D00002F070420B68013B4C68013C43EA041353
:1045E0008C68013C43EA0423CC68013C43EA043371
:1045F0000C69013C43EA04434C69013C43EA04531F
:104600008969013943EA016313438360002030BCA8
:1046100070478368114C1C40CA68551E4B695A1E6E
:10462000120542EA05322243C46804F070440B6864
:10463000013B4D68013D43EA05138D68013D43EAA6
:1046400005230D69013D43EA05438969013943EAC0
:10465000016323438260C360D8E700BFFF0F0FFFF1
:104660000C4B1B680C4AA2FB03235A0A41F2883305
:1046700003FB02F35A1E4BB1416B134611F0800F3E
:10468000F8D040F2FF538363002070474FF00040A2
:10469000704700BF08000020D34D6210144B1B6808
:1046A000144AA2FB03235A0A41F2883303FB02F3A4
:1046B0005A1ECBB1416B134611F0450FF8D0436B36
:1046C00013F0040F08D1436B13F0010F08D140F22F
:1046D000FF538363002070470423836318467047A9
:1046E00001238363184670474FF00040704700BFB6
:1046F00008000020D34D6210104B1B68104AA2FB2B
:1047000003235A0A41F2883303FB02F35A1E8BB18A
:10471000416B134611F0450FF8D0436B13F0040FB3
:1047200004D140F2FF538363002070470423836366
:10473000184670474FF00040704700BF0800002047
:10474000D34D6210124B1B68124AA2FB03235A0A74
:1047500041F2883303FB02F35A1EA3B1416B1346A7
:1047600011F0450FF8D0436B13F0040F07D1436BE2
:1047700013F0400F0AD0402383630020704740238A
:104780008363042070474FF000407047002070475B
:1047900008000020D34D621084B010B402AC84E84D
:1047A0000E000B46039A1343049A1343059A1343CE
:1047B000069A1343079A13434168044A0A40134375
:1047C000436000205DF8044B04B070470081FFFF98
:1047D000D0F8800070470323036000207047006812
:1047E00000F00300704700000B6883604B688A6824
:1047F0001343CA6813430A691343C168024A0A4053
:104800001343C3600020704700F0FFFF0069C0B28F
:10481000704782B000230193143001440191019B41
:10482000186802B07047000038B5514B1B68514CF6
:10483000A4FB03435B0A02FB03F2531E002A5ED073
:10484000446B1A4614F0450FF7D0436B13F0040F76
:1048500007D1436B13F0010F07D001238363184680
:104860004FE00423836318464BE00D460446FFF7F0
:10487000CDFFA84201D0012043E040F2FF53A363E3
:1048800000212046FFF7C5FF3B4B0340D3B3002870
:104890003ADB10F0804F3AD110F0005F39D110F0C0
:1048A000805F38D110F0006F38D110F0806F38D1B0
:1048B00010F0807F38D110F4000F38D110F4800F41
:1048C00038D110F4001F38D110F4801F38D110F403
:1048D000802F38D110F4003F38D110F4803F38D108
:1048E00010F4004F38D110F4804F38D110F4005F2D
:1048F00038D110F0080F38D04FF4000001E04FF02D
:10490000004038BD0020FCE74FF00070F9E7402080
:10491000F7E78020F5E74FF48070F2E74FF400707E
:10492000EFE74FF48060ECE74FF40060E9E74FF405
:104930008050E6E74FF40050E3E74FF48040E0E7B3
:104940004FF40040DDE74FF40030DAE74FF4802009
:10495000D7E74FF40020D4E74FF48010D1E74FF4AD
:104960000010CEE74FF48000CBE74FF48030C8E76B
:1049700008000020D34D621008E0FFFD70B5254B04
:104980001B68254CA4FB03435C0A41F2883303FBFC
:1049900004F35C1EA3B3456B234615F0450FF8D016
:1049A000436B13F0040F07D1436B13F0010F07D0D3
:1049B00001238363184625E004238363184621E01E
:1049C00016460D460446FFF721FFA84201D00120FC
:1049D00018E040F2FF53A36300212046FFF719FFC0
:1049E00010F4604F08D010F4804F0CD110F4004F39
:1049F0000CD04FF4805005E0000C3080002001E026
:104A00004FF0004070BD4FF40050FBE74FF4803092
:104A1000F8E700BF08000020D34D62100B68436226
:104A20004B6883628B68CA6813430A6913434A69F7
:104A30001343C26A22F0F7021343C3620020704797
:104A400030B587B0054601911024029440230393AA
:104A5000002304934FF48063059301A9FFF7C4FE7C
:104A600041F2883221462846FFF7DEFE07B030BD0E
:104A700030B587B005460192072402944023039382
:104A8000002304934FF48063059301A9FFF7ACFE64
:104A900041F2883221462846FFF7C6FE07B030BDF6
:104AA00010B586B004460023019302930393049348
:104AB0004FF48063059301A9FFF796FE2046FFF7A8
:104AC000CFFD06B010BD10B586B004464FF4D573C7
:104AD00001930823029340230393002304934FF48C
:104AE0008063059301A9FFF77FFE2046FFF72AFEAA
:104AF00006B010BD30B587B0054601913724029449
:104B000040230393002304934FF48063059301A98A
:104B1000FFF76AFE41F2883221462846FFF784FEFD
:104B200007B030BD10B586B004460A4B0B43019365
:104B30002923029340230393002304934FF48063BB
:104B4000059301A9FFF750FE2046FFF7D5FD06B0FB
:104B500010BD00BF0000108030B587B00546019140
:104B60000624029440230393002304934FF48063AC
:104B7000059301A9FFF738FE41F288322146284605
:104B8000FFF752FE07B030BD30B587B005460023B1
:104B90000193332402944022039204934FF48063E0
:104BA000059301A9FFF720FE41F2883221462846ED
:104BB000FFF73AFE07B030BD10B586B004460023BB
:104BC000019302220292C022039204934FF4806365
:104BD000059301A9FFF708FE2046FFF75FFD06B029
:104BE00010BD10B586B00446019109230293C0237D
:104BF0000393002304934FF48063059301A9FFF707
:104C0000F3FD2046FFF74AFD06B010BD70B586B033
:104C100005460E460023019303240294402203928A
:104C200004934FF48063059301A9FFF7DDFD32463D
:104C300021462846FFF7A2FE06B070BD43684B60D0
:104C40009A688A609A6851609960086103680133C4
:104C500003607047036942688168916082684168B7
:104C600051605A68824206D0002202611A68013AF5
:104C70001A601868704782685A60F5E7074B9B6AAC
:104C80001B6833B1054B9A6AD268D2685268DA62FF
:104C90007047024B4FF0FF32DA6270472800002065
:104CA0002DE9F041414BD3F81831002B6ED13F4B29
:104CB000D3F814510135C3F81451DDB99B6A1B6850
:104CC00053B14FF0500372B683F31188BFF36F8F67
:104CD000BFF34F8F62B6FEE7344B9A6AD3F8F810F1
:104CE0009962C3F8F820D3F820210132C3F82021BB
:104CF000FFF7C4FF2D4BDB6AAB423DD900242B4AA2
:104D0000D2F80031DB6A03EB830399000A44136B8A
:104D1000012B42D9012440E00124244B9B6A1B68EB
:104D200063B3224B9B6ADB68DE6873689D422AD3BB
:104D300006F104084046FFF78DFFB36A1BB106F188
:104D40001800FFF787FFF36A01229A40174FD7F840
:104D50000C110A43C7F80C2107F1300003EB830361
:104D60009A0041461044FFF769FFF26AD7F8003114
:104D7000DB6A9A42D0D2D0E70024CEE70B4B4FF04B
:104D8000FF32DA62BBE7094AD362B8E7074AD2F8D2
:104D900024310133C2F824310024044BD3F82831E4
:104DA00003B101242046BDE8F08100BF28000020A7
:104DB000314BD3F8183123B12F4B0122C3F82821EE
:104DC000704710B52C4B0022C3F82821D3F80031CE
:104DD0001B6B1A68B2F1A53F03D15A68B2F1A53F27
:104DE00020D0254BD3F80001D3F80011343100F066
:104DF000A9F8214AD2F80C31B3FA83F3DBB2C3F13C
:104E00001F0303EB830081000A44126B9AB94FF031
:104E1000500372B683F31188BFF36F8FBFF34F8FC8
:104E200062B6FEE79A68B2F1A53FDAD1DB68B3F16A
:104E3000A53FD6D1DDE7104A9900CC18A000104458
:104E4000446B64684463303219448800083002447B
:104E5000944209D0084903EB83039A000A44536B38
:104E6000DB68C1F8003110BD61680348142202FB01
:104E700003025163EEE700BF28000020000000009D
:104E8000074B19680868B0E8F04F80F30988BFF352
:104E90006F8F4FF0000080F311887047AFF30080F0
:104EA00028010020000000000000000000000000B9
:104EB000EFF30980BFF36F8F154B1A681EF0100FC8
:104EC00008BF20ED108A20E9F04F10602DE909009D
:104ED0004FF0500072B680F31188BFF34F8FBFF3CD
:104EE0006F8F62B6FFF764FF4FF0000080F3118808
:104EF00009BC19680868B0E8F04F1EF0100F08BF31
:104F0000B0EC108A80F30988BFF36F8F704700BF41
:104F10002801002008B54FF0500372B683F31188C2
:104F2000BFF36F8FBFF34F8F62B6FFF7B9FE18B1B3
:104F3000034B4FF080521A60002383F3118808BDA1
:104F400004ED00E0704700B583B0FBF773FC0190FF
:104F500003B05DF804FB70472DE9F04F91B00024D9
:104F60000B940C940D940E940F94AA4B1A6B42F070
:104F700010021A631A6B02F010020092009A1A6B68
:104F800042F040021A631A6B02F040020192019A49
:104F90001A6B42F002021A631A6B02F002020292CA
:104FA000029A1A6B42F008021A631A6B02F00802A6
:104FB0000392039A1A6B42F004021A631A6B02F00E
:104FC00004020492049A1A6B42F001021A631A6BEB
:104FD00002F001020592059A1A6B42F400721A63FC
:104FE0001A6B02F400720692069A1A6B42F48072EF
:104FF0001A631A6B02F480720792079A1A6B42F4D2
:1050000080621A631A6B02F480620892089A1A6B23
:1050100042F020021A631A6B02F020020992099AE8
:105020001A6B42F080021A631B6B03F080030A9331
:105030000A9B012220217848FCF7B2F822460C2175
:105040007648FCF7ADF8012208217548FCF7A8F86E
:1050500001224FF480517148FCF7A2F822464FF428
:1050600000517048FCF79CF82246C8216E48FCF7B6
:1050700097F84FF0080BCDF82CB00C940D940BA9B9
:105080006A48FBF79DFF4FF4D0430B9302260C9622
:105090000D9403250E954FF00B09CDF83C900BA90C
:1050A0006148FBF78DFF43F623430B930C960D9459
:1050B0000E954FF00A08CDF83C80DFF884A10BA9CB
:1050C0005046FBF77DFF4FF400730B9312230C93B4
:1050D00001270D970E9404230F930BA95046FBF75D
:1050E0006FFF4FF480530B930C940D940BA9504811
:1050F000FBF766FF40230B934E4B0C930D940BA9CB
:105100004548FBF75DFF4FF4E0530B930C960D946D
:105110000E95CDF83C800BA94748FBF751FF2023A3
:105120000B930C970D940E940BA93B48FBF748FF8B
:1051300041F20C030B930C970D940E940BA9374876
:10514000FBF73EFF4FF4005ACDF82CA00C940D94C1
:105150000BA93A48FBF734FFCDF82CB00C970D940F
:105160000E940BA92E48FBF72BFF4FF0100BCDF838
:105170002CB00C940D940BA92748FBF721FF48F2A3
:1051800004030B930C940D940BA92648FBF718FF0E
:10519000CDF82CA00C970D940E940BA92148FBF789
:1051A0000FFFCDF82CA0234B0C930D940BA91B489B
:1051B000FBF706FFCDF82CB00C960D940E95CDF8AC
:1051C0003C800BA91748FBF7FBFEC8230B930C97F9
:1051D0000D940E940BA91448FBF7F2FE05230B93D4
:1051E0000C960D940E95CDF83C800BA91348FBF757
:1051F000E7FE32230B930C960D940E95CDF83C9060
:105200000BA90E48FBF7DCFE04230B930C940D94C2
:105210000BA917E000380240000C024000200240B9
:1052200000280240001C024000180240001002400A
:10523000002402400000121000000240000802405A
:10524000000402400D48FBF7BBFE86230B930C962F
:105250000D940E95CDF83C900BA90948FBF7B0FED4
:1052600028230B930C960D940E95CDF83C800BA93A
:105270000348FBF7A5FE11B0BDE8F08F001802400F
:105280000000024070B584B000250095019502959C
:105290000395104C104B23604FF480336360A5607E
:1052A0002561A56184F82050E5620C4BA362E5609E
:1052B0000126E66184F8305066612046FBF7F4F978
:1052C00000950196029569462046FBF75DFB04B008
:1052D00070BD00BFBC050020002201400100000F8E
:1052E00008B50648064B0360002303714371436110
:1052F000836101230362FBF771FC08BDEC0300200E
:105300000030024008B50948094B036000234360A0
:105310008360C360036143618361036243628362AC
:10532000C3620363FBF7D0FC08BD00BF0406002086
:105330000000055010B5094C094B23600023636041
:10534000A360E360A362E362236363632046FBF729
:1053500007FD01212046FBF7D1FD10BDB407002059
:1053600000B0024000B589B01348144B036000231D
:10537000436083600421C1601022026140224261C7
:105380004FF4C0728261C3614FF4006202624FF455
:1053900080524262836202230193072202920391A8
:1053A000049203220592069307936944FEF72CF8B2
:1053B00009B05DF804FB00BF74080020400100A0A4
:1053C00038B50D4C0D4B23600D4B63600025A56077
:1053D0000123E36025616561A561E56125622046E1
:1053E000FBF7E4FE29462046FBF73EFF2946204610
:1053F000FBF768FF38BD00BFEC010020005C0040F7
:10540000FFEAC00030B58FB03422002101A801F0BE
:105410008DFA244C244B236000256560A560E5606F
:105420002561282363610923A3613523E3610B23ED
:10543000236240F21523636240F21B13A36240F221
:105440003523E36240F21D13236384F8345084F85B
:10545000355084F836502046FCF72AF801954FF471
:10546000F072029203954FF4887304930221059120
:10547000FF21069107954FF4C0610891072109911A
:105480004FF040410A910B920C938DF834508DF8F7
:1054900035508DF836502A4601A92046FCF7F2F81F
:1054A0000FB030BD140500200068014008B5084861
:1054B000084B0360FF234360012282600023C36026
:1054C000026143618361C3610362FCF777F908BD40
:1054D000A8080020001000A070B592B000240C9421
:1054E0000D940E940F94109411940B942C22214639
:1054F000684601F01BFA284D284B2B606C607F2317
:10550000AB60FF23EB602C616C61AC612846FDF75A
:10551000D3F88DF830408DF831408DF8324010943A
:10552000119401220CA92846FDF724F901268DF8D3
:105530002C608DF82D608DF82E608DF82F4032464E
:105540000BA92846FDF796F98DF800408DF801402B
:105550008DF80240019404940594069407940894ED
:105560008DF824604FF480730A93324669462846CA
:10557000FDF7EEF98DF824604FF400730A9332467C
:1055800069462846FDF7E4F9022221462846FDF740
:105590008FFA12B070BD00BFD40600200028004072
:1055A000F8B51E481E4B0360002404634460402786
:1055B00047638463C4638460046144618461194BFC
:1055C000C361C46044628462C46208260664012523
:1055D00045648464C464046544658465C565046683
:1055E000FDF7B6FA1048114B0360046303234360D0
:1055F00047638463C463856004618461C4604462FA
:105600008462C462066445648464C4640465446559
:105610008465C5650466FDF79BFAF8BD2803002084
:10562000045C014000EE020064010020245C0140A3
:1056300010B5094C094B236000236360A360E3604D
:1056400023616361A3612046FDF775FE4FF400619D
:105650002046FDF789FE10BD10040020002C0140FB
:1056600008B509484FF0402303600023436083607E
:10567000C360036143618361C36103624362836208
:10568000FDF7E2FE08BD00BFDC02002008B50E48B1
:105690000E4B03604FF482734360002383604FF42A
:1056A0004072C260036143614FF400728261C36162
:1056B0000362436283620722C26203630823436377
:1056C000FDF7FAFE08BD00BF380200200038004098
:1056D00030B589B00024049405940694079401948D
:1056E000029403940D4D0E4B2B606C60AC60EC602B
:1056F0002C616C61AC612846FEF7DCF94FF48053F5
:10570000049304A92846FEF73BFB019402940394FA
:1057100001A92846FEF700FC09B030BD9C0200201C
:105720000004014030B59BB00024169417941894DF
:1057300019941394149415940C940D940E940F943E
:105740001094119412942C22214601A801F0EEF835
:10575000204D214B2B60C8236B601023AB6064236A
:10576000EB602C616C618023AB612846FEF7A2F9E7
:105770004FF48053169316A92846FEF701FB2846DE
:10578000FEF7B1F913941494159413A92846FEF763
:10579000C3FB0C940D940E940F94109411941294D6
:1057A00022460CA92846FEF709FA019402940394B4
:1057B000049405944FF400530693079408944FF013
:1057C000007309930A940B9401A92846FEF7D6FBAF
:1057D0001BB030BDF40600200000014030B58FB092
:1057E00000240A940B940C940D9407940894099443
:1057F0000094019402940394049405940694154D26
:105800004FF080432B606C60AC60EC602C61AC614D
:105810002846FEF74FF94FF480530A930AA9284609
:10582000FEF7AEFA2846FEF777F90794099407A920
:105830002846FEF771FB60230093019402940494C0
:10584000224669462846FEF7F4F9284600F02AFE6B
:105850000FB030BDF407002030B58FB000240A949B
:105860000B940C940D94079408940994009401945B
:1058700002940394049405940694154D154B2B60E3
:105880006C60AC60EC602C61AC612846FEF712F9EC
:105890004FF480530A930AA92846FEF771FA284666
:1058A000FEF73AF90794099407A92846FEF734FB56
:1058B000602300930194029404942246694628468A
:1058C000FEF7B7F9284600F0EDFD0FB030BD00BF80
:1058D000D40400200004004030B58FB000240A94A6
:1058E0000B940C940D9407940894099400940194DB
:1058F00002940394049405940694154D154B2B6063
:105900006C60AC60EC602C61AC612846FEF7D2F8AC
:105910004FF480530A930AA92846FEF731FA284625
:10592000FEF7FAF80794099407A92846FEF7F4FA57
:10593000602300930194029404940C226946284643
:10594000FEF777F9284600F0ADFD0FB030BD00BF7F
:1059500094040020000C004030B589B0002401946C
:105960000294039404940594069407940C4D0D4BF3
:105970002B606C60AC60EC602C61AC612846FEF77B
:10598000CBF860230193029403940594224601A965
:105990002846FEF74EF9284600F084FD09B030BDD8
:1059A000340800200018004030B589B0002401946C
:1059B000029403940494059406940794104D114B9B
:1059C0002B60A8236B60AC6044F62063EB602C6115
:1059D000AC612846FEF76EF82846FEF79DF8602376
:1059E000019342F21073029303940594224601A995
:1059F0002846FEF71EF9284600F054FD09B030BDD8
:105A0000AC0300200044014008B50948094B03607D
:105A10004FF4E133436000238360C36003610C22D1
:105A200042618361C36103624362FEF762FD08BDA8
:105A3000540600200010014008B50948094B0360D6
:105A40004FF4E133436000238360C36003610C22A1
:105A500042618361C36103624362FEF74AFD08BD90
:105A6000340700200014014070B5B4B0302200218A
:105A700028A800F05BFF0024239424942594269406
:105A800027948422214602A800F050FFFBF728FE4D
:105A90002E4B1A6C42F080521A641B6C03F0805338
:105AA0000093009B2A4B1A6842F440421A601B681C
:105AB00003F440430193019B092328934FF4803260
:105AC000299201262D9602252E954FF480022F92C1
:105AD000192230924FF4C87231923295339328A82C
